:0400000002001132B7
:03000B0002008967
:1F006A00751000E4F511F512F513F514F515F516F517F518F519F51AF51BF51C02000E74
:03000E000200FBF2
:20008900C0E0C0D075D008E519602AAE11AF12EE2515F515EF3516F516E516FFB51B02800F
:2000A900198F1B1519851BE030E102B2E01392951392948005E4F511F512E51A602AAE13EE
:2000C900AF14EE2517F517EF3518F518E518FFB51C0280198F1C151A851CE030E102B2E06D
:2000E9001392971392968005E4F513F514D0D0D0E0321219E4AEB04306038EB0AE96430600
:20010900038E96AE974306038E9753900F53920FAE934306F08E93900032121A0E53C9EF71
:20012900AE895306F04306028E89758CACD28CD2A9D2AF1219ADC20010D802800A1202B6F5
:20014900AF82BF1502D200100002800312115D1217AA7582331217CFAE82AF83BEFF05BFD0
:20016900FF0280D48E82C0061203A6D006EE60338E071FC2D575F00CEF30E704B2D5F404F4
:20018900A430D50AF42401C5F0F43400C5F0248EFD740035F0FF74082DF582E43FF583E016
:2001A900FF8005900089E0FFEF540F70030202A38F0453047F430490EF30E7067BC07D004A
:2001C90080047B007D008B21E4F522F5238C82C007C006120448E582D006D0076003020267
:2001E900A37D00630780EE60311EC2D575F00CEE30E704B2D5F404A430D50AF42401C5F03E
:20020900F43400C5F0248EFD740035F0FE74082DF582E43EF583EFF08005900089EFF0E5B7
:20022900DB70030202A3900000E0FF30E004C2B08002D2B0EF30E104C2B18002D2B19000BB
:2002490001E0FF30E706C3E49FFE80028F06AD19EE2DF519EF3395E0FEEF2FFFEE33FEEF8E
:200269002511F511EE3512F512900002E0FF30E706C3E49FFE80028F06AD1AEE2DF51AEF34
:200289003395E0FEEF2FFFEE33FEEF2513F513EE3514F5149003B61219F87582011202FE8E
:0302A9000201410E
:201AA4008006000100001200800600020000040000050200000000000009000000000000ED
:201AC400010B0000000000000201000000000000A006002900000900210A000000000000F0
:201AE400810600220000FF00C0330000000002000004102327354357434800574348554115
:201B0400525444656D6F00574348204163636573736F7279205465737400312E30006874BD
:201B240074703A2F2F7763682E636E005743484163636573736F72793100403400000000B1
:201B440004004034000001000C004034000002001300403400000300040040340000040080
:0A1B64000E004034000005000E00E2
:2002AC00900081E4F0900082F0227F00E5DA30E018900081E06005E5D120E01C1202AC904B
:2002CC0000817401F07F15800F900081E0FEBE010040051202AC7F168F8222AF82ADE3537A
:2002EC0005807E0053077F7C00EF4205EC42068DE322E582600753E2BF53D27F22AEE24343
:20030C0006408EE2229000807408F0751D00751E0D751F0090008175F000121A4A758200D4
:20032C001202E753D1FE7582011202FE74FB55D1FF4307028FD1900014121A0E53D1FD90BB
:20034C0000FA1219F8C2D822900081E0FFBF010050069000817401F0E5DA30E039E5D1205E
:20036C00E01FE5DA30E1067E007F0080047E017F00900083EEF0EE7008AED1FF4306048E6D
:20038C00D1AEE24306018EE275D240AED14306018ED17582002275821622E582FF60661FF4
:2003AC00C2D575F00CEF30E704B2D5F404A430D50AF42401C5F0F43400C5F0248EFE74001E
:2003CC0035F0FF8E828F83A3E0F582C007C0061202E7D006D00774022EFEE43FFF8E828F39
:2003EC0083E0F582C007C0061202FED006D0078E828F83E07023AED24306808ED2D201902A
:20040C0000640219F8C201900082E0F5821202E7900083E0F5820202FE227E157F02EE4F53
:20042C00600A20D9071EBEFF011F80F230D9067E007F0080047EFE7F008E8222AF82852145
:20044C00D68521D475DD00EFC4540FFEBE0103EE8001E4FDE4BE090104FCAA22AB238FD51E
:20046C00C2D978157902E849600A20D90718B8FF011980F275D50020D9047582FE2210D891
:20048C00028052C007C006C005C004C003C0021202B6A982D002D003D004D005D006D007F1
:2004AC00B91502D200900081E0F9700475821622B90104758215229000C8C007C006C0056B
:2004CC00C004C003C0021219F8D002D003D004D005D006D00720D90302055730DE04758246
:2004EC000022E5D9540FF524740EB52408A824430020888222740AB5241EEA4B7008A824E8
:20050C00430020888222C3EA94FFEB94FF50051ABAFF011B15DD8036ED7006EC700FBE0DFD
:20052C0026E5246029A8244300208882227403B52402801A740BB524028013E524600FA8A3
:20054C00244300208882227582FE2275D8FF90000FC007C006C005C004C003C0021219F81C
:20056C00D002D003D004D005D006D00705DD74FD25DD400302046A7582202285822A8583FA
:20058C002B85252C85262D85272E9000C81219F8E52C452D600D852C82852D83852EF0E442
:2005AC00121A6975D7087521007522107523277582D0120448E582FA60038A822275D6D018
:2005CC0075D4D075D701900047E0FA7900900046E0F87F0049FEEF4AFF4E7003020781E5A3
:2005EC002A452B7003020781900040E0FA20E7030206BDEE4F70030206B79000C8C007C091
:20060C00061219F885D421752210752327758290120448AA82D006D007EA60038A8222A9E3
:20062C00DB7A00C3E99EEA9F5006A9DB7A0080048E018F028928A8287A00EEC398FEEF9AC3
:20064C00FFE52C452D601B852C82852D83852EF0121A842528FA852C82852D83852EF01272
:20066C001A69A82AAA2B752900E528B529028016852982758300E0F988828A83F0A3A8824E
:20068C00AA83052980E3882A8A2BE5DB601D900080E0F97A0019B9FF011AA8DB7D00E85263
:2006AC0001ED5202E94A70030205FF75D700020781EE4F70030207819000C8C007C0061239
:2006CC0019F8D006D007900080E0FC7D00C3EE9CEF9D50048E048F058CD7852A82852B83CD
:2006EC00A3E0FDBD0912AC107D006304018C10852A82852B83E510F0AC2AAD2B7B00EBB547
:20070C00D702801CEB2440F9E43400FA8C828D83E0F8A3AC82AD8389828A83E8F00B80DEAE
:20072C008C2A8D2B85D621752210752327758210C007C006120448AD82D006D007ED60033F
:20074C008D8222ACD77D00EEC39CFEEF9DFFE52C452D70030206BD852C82852D83852EF0C0
:20076C00121A8425D7FD852C82852D83852EF0121A690206BD9000C81219F8E5D760047F45
:20078C009080027F107521C07522107523278F82120448E582FF60038F8222E5D77003F561
:2007AC008222E5DB7003F5822275821722AE82AF833001328E828F83E493900040F08E04DD
:2007CC008F057B01EB2440F9E43400FA8C828D83E493F8A3AC82AD8389828A83E8F00BBB5F
:2007EC0009E28C068D072001207D00ED2440FBE43400FC8E828F83E493FAA3AE82AF838B9B
:20080C00828C83EAF00DBD08E2229000807408F0901AA41207B975252F752600752740901F
:20082C0000BE120587E582FE60038E82229000C5E0900080F0901AAAE493FFC3E52F9F5091
:20084C00047582172275820022901AAC1207B97525307526007527409000BE120587E58283
:20086C00FF60038F82229000C0E0F530901AAC1207B9300106900047E530F0200106900090
:20088C0046E530F07525307526007527409000BE120587E582FF60038F822275820022AF10
:2008AC0082901AB4C0071207B9D007300105900043EFF0200105900042EFF0E4F525F52604
:2008CC00F527900000C007120587AE82D007EEFD60038D82228F821202E790000A121A0E95
:2008EC0075820022AF82901ABCC0071207B9D007300105900043EFF0200105900042EFF00D
:20090C00E4F525F526F527900000020587AF82901ACCC0071207B9D007300105900045EF67
:20092C00F0200105900044EFF0E4F525F526F527900000020587AF82901AC4C0071207B957
:20094C00D007300105900043EFF0200105900042EFF0E4F525F526F527900000020587AFF3
:20096C0082901ADCC0071207B9D007300107900045EFF08005900044EFF075253175260069
:20098C007527409000BEC007120587AE82D007EE60038E8222901AE4C0071207B9D0073004
:2009AC000107900045EFF08005900044EFF07525317526007527409000BE120587E582FFA3
:2009CC0060038F822275820022901AD41207B97525327526007527409000BE120587E58276
:2009EC00FE60038E8222901ADAE493FFC3E5329F50047582172275820022AF8290004074D3
:200A0C00A3F0900041E4F0900042F0900043F0900044EFF0900045E4F09000467404F090E3
:200A2C000047E4F0752533F5267527409000BE120587E582FE60038E822274FC25334004D9
:200A4C007582172275820022AF829000407423F09000417403F0900042E534F0900043E4EF
:200A6C00F0900044EFF0900045E4F0900046F0900047F0F525F526F527900000020587AF73
:200A8C00829000407423F09000417401F0900042E535F0900043E4F0900044EFF090004530
:200AAC00E4F0900046F0900047F0F525F526F527900000020587858237858338E536604120
:200ACC00AD361DC2D575F00CED30E704B2D5F404A430D50AF42401C5F0F43400C5F0248E6B
:200AEC00FC740035F0FD74082CFCE43DFD7B008B1D751E048B1F8C828D838BF0121A4A80A3
:200B0C0012751D00751E04751F0090008975F000121A4A7D007C00AA37AB388A828B83A38C
:200B2C00A3E0FBC3ED9B4003020C01ED2537FAE43538FB8A008B0188828983A3E0F9B90599
:200B4C00028003020BEB8A008B0188828983A3A3A3E0F85300037900B80305B90002800352
:200B6C00020BEB8A008B0188828983A3A3E0F930E76DE536604AA93619C2D575F00CE930C4
:200B8C00E704B2D5F404A430D50AF42401C5F0F43400C5F0248EF8740035F0F9740828F8A9
:200BAC00E439F9EC28F8E439F98A068B078E828F83A3A3E0FF53070F88828983EFF0801991
:200BCC00EC2489FEE43400FF8A828B83A3A3E0FB53030F8E828F83EBF00CBC04005016ED9F
:200BEC002537F582E43538F583E0FF24EF4006EF2DFD020B238C822285823A85833B7D009B
:200C0C007C02E5396049AB391BC2D575F00CEB30E704B2D5F404A430D50AF42401C5F0F482
:200C2C003400C5F0248EFA740035F0FB74082AFAE43BF97B008B1D751E048B1F8A8289834B
:200C4C008BF0C005C004121A4AD004D005801A751D00751E04751F0090008975F000C005CB
:200C6C00C004121A4AD004D005753C00A93AAA3B89828A83A3A3E0FAC3E53C9A4003020D04
:200C8C00E5E53C253AF9E4353BFA89008A0788828F83A3E0FFBF05028003020DCC89068AA7
:200CAC00078E828F83A3A3A3E0FF5307037E00BF0205BE00028003020DCCE5397003020DD8
:200CCC007689068A078E828F83A3A3E030E74EAF391FC2D575F00CEF30E704B2D5F404A489
:200CEC0030D50AF42401C5F0F43400C5F0248EFE740035F0FF74082EFEE43FFF8D000DE89A
:200D0C002EFEE43FFF89008A0388828B83A3A3E0FB53030F8E828F83EBF0020DC2AF391FF0
:200D2C00C2D575F00CEF30E704B2D5F404A430D50AF42401C5F0F43400C5F0248EFE740094
:200D4C0035F0FF74082EFEE43FFF8C030CEB2EFEE43FFF89008A0388828B83A3A3E0FB5323
:200D6C00030F8E828F83EBF0804C89068A078E828F83A3A3E030E7228D070DEF2489FFE4CB
:200D8C003400FE89008A0388828B83A3A3E0FB53030F8F828E83EBF0801C8C070CEF24898D
:200DAC00FFE43400FE89828A83A3A3E0FB53030F8F828E83EBF0BD02027D01BC04027C03F7
:200DCC00E53C253AF582E4353BF583E0FF24EF4008EF253CF53C020C78758200227F00C3A8
:200DEC00740A9FE433FE7D00C3ED9F501C900064C007C006C005121A0ED005D006D007EE8D
:200E0C006004853D82220D80DFC007120311D0077E007D00BE6400503C900001C007C00605
:200E2C00C005121A0E120354E582D005D006D0077020FE0D8F037C0074142BFBE43CFC8D55
:200E4C00017A00C3EB99EC64808AF063F08095F040030E80BFEE6007C0071202ACD007756A
:200E6C008200C0071203A612081685823DD007E53D60030211499000C7E0FD7E009000C62E
:200E8C00E07B002EFEEB3DFD900085EEF0EDA3F09000C9E0FD7E009000C8E07B002EFEEBA9
:200EAC003DFD900087EEF0EDA3F09000C2E0FE901AB6E493F582C007C0061208AB85823D63
:200ECC00D006D007E53D6003021149901AB6E493900082F0C007C00612085585823DD00689
:200EEC00D007E53D60030211499000C3E0FD9000C2E0FC9000CCE0FBEE7039BB083675395B
:200F0C00009000BEC007C005120C04D0058D821208F085823DD007E53D600302114990004F
:200F2C00817403F09000847408F07582011202FE75820022EE6003020FDBBB070280030294
:200F4C000FDB9000CDE0FABA01028003020FDB9000D1E0FABA050E9000D2E0FA60079000FD
:200F6C0089EAF080149000D1E0FABA050C9000D2E0FA700590008AEAF09000D8E0FABA05C2
:200F8C00119000D2E0600B9000D9E0FA900089F080179000D8E0FABA050F9000D2E07009D9
:200FAC009000D9E0FA90008AF08D82C007C0051208F085823DD005D007E53D600302114962
:200FCC008D82C00712094285823DD007021149EE600302108DBB0302800302108D9000CD2C
:200FEC00E0FB24FE500302108D7536009000BEC007C005C004120AC2D004D0059000CEE0E8
:20100C00FB8D82C004C0031208F085823DD003D004D007E53D60030211497A00C3EA9C5073
:20102C00188A82C007C004C003C00212096BD002D003D004D0070A80E39000817403F0BBFA
:20104C00011B9000847423F0EC24FE50069000847403F07582011202FE75820022BB021BF3
:20106C009000847433F0EC24FE50069000847403F07582011202FE75820022753DFB0211F7
:20108C0049BE090280030211307536009000BEC007C005120AC21209D585823DD005D00729
:2010AC00E53D60030211499000C0E0FE90008DF0EE24FB500690008D7404F08D82C0071238
:2010CC0008F085823DD007E53D70729000817403F09000847409F07E0190008DE0C39E40D7
:2010EC00398E041CC2D575F00CEC30E704B2D5F404A430D50AF42401C5F0F43400C5F024ED
:20110C008EF582740035F0F583E4F07534088E82C006120A54D0060E80BF7582011202FEB5
:20112C00758200227539009000BEC007C005120C04D0058D821208F085823DD007900081C6
:20114C007402F0758201C0071202FED0070F020DEB900081E0FFBF010C120DE9E582FFFE44
:20116C0060038E822275820022E582F53E70047582FE22853E821203A6120816E582FE609B
:20118C00038E8222E53EFE14FDC2D575F00CED30E704B2D5F404A430D50AF42401C5F0F4D8
:2011AC003400C5F0248EFC740035F0FD74042CFAE43DFB9000C7E0F8790088428941900070
:2011CC00C6E07F002541F9EF3542FF8A828B83E9F0EFA3F074062CFCE43DFD9000C9E0FBB1
:2011EC007F009000C8E07A002FFFEA3BFB8C828D83EFF0EBA3F09000C2E0FF74102EFDF514
:20120C0082C007C006C0051208ABAC82D005D006D007EC60038C8222EE14FCC2D575F00CF4
:20122C00EC30E704B2D5F404A430D50AF42401C5F0F43400C5F0248EFB740035F0FC8B826F
:20124C008C83A3EDF0C007C006120855AD82D006D007ED60038D82229000C3E0FD9000CC0E
:20126C00E0FCEF706ABC0867853E399000BEC006C005120C04D0058D821208F0AB82D006AA
:20128C00EB6003021518EE14FAC2D575F00CEA30E704B2D5F404A430D50AF42401C5F0F4C8
:2012AC003400C5F0F9AAF0248EF582EA3400F5837403F0E9248EF9EA3400FA89828A83A319
:2012CC00A3A37408F07582011202FE75820022EF6003021454BC030280030214549000CD66
:2012EC00E0FA24FE50030214549000C2E0F540853E369000BEC006C005120AC2D0059000AD
:20130C00CEE0F98D82C0011208F0AB82D001D006EB60030215187800C3E895405014888289
:20132C00C006C001C00012096BD000D001D0060880E6EE14F8C2D575F00CE830E704B2D563
:20134C00F404A430D50AF42401C5F0F43400C5F0248EF582740035F0F5837403F0B9017060
:20136C00EE14F8C2D575F00CE830E704B2D5F404A430D50AF42401C5F0F43400C5F0248ECD
:20138C00F8740035F0FA88828A83A3A3A37423F0E54024FE5030EE14FAC2D575F00CEA304A
:2013AC00E704B2D5F404A430D50AF42401C5F0F43400C5F0248EF8740035F0FA88828A8305
:2013CC00A3A3A37403F07582011202FE75820022B90270EE14FAC2D575F00CEA30E704B2A8
:2013EC00D5F404A430D50AF42401C5F0F43400C5F0248EF9740035F0FA89828A83A3A3A377
:20140C007433F0E54024FE5030EE14FAC2D575F00CEA30E704B2D5F404A430D50AF424010E
:20142C00C5F0F43400C5F0248EF9740035F0FA89828A83A3A3A37403F07582011202FE75E9
:20144C008200227BFB021518BF0949EE14FAC2D575F00CEA30E704B2D5F404A430D50AF4F7
:20146C002401C5F0F43400C5F0248EF9740035F0FA89828A83A3A3A37409F0753501853F8E
:20148C0082C006120A8BAA82D006EA60038A82227BFB8078853E399000BEC007C006C005CA
:2014AC00C004120C04D004D0058D82C0041208F0AB82D004D006D007EB7051EE14FDC2D5C4
:2014CC0075F00CED30E704B2D5F404A430D50AF42401C5F0F43400C5F0FDAAF0248EF582EA
:2014EC00EA3400F5837403F0ED248EFDEA3400FA74032DFDE43AFAEF70028C078D828A8366
:20150C00EFF07582011202FE758200221EC2D575F00CEE30E704B2D5F404A430D50AF42444
:20152C0001C5F0F43400C5F0248EF582740035F0F5837402F0758201C0031202FED0038B41
:20154C0082227F0190008DE0FEC39F50030217A6758200C0071203A6D0078F82C007120AA8
:20156C0006AE82D007EE60038E82229000BEE030E0089000C0E0FE20E00D9000C0E0FEBE62
:20158C00100280030217138F05ED14FCC2D575F00CEC30E704B2D5F404A430D50AF4240193
:2015AC00C5F0F43400C5F0FCABF0248EF582EB3400F5837401F0EC248EFCEB3400FB8C820F
:2015CC008B83A3E4F08F82C007C005120A06AC82D005D007EC60038C8222ED14FCC2D57559
:2015EC00F00CEC30E704B2D5F404A430D50AF42401C5F0F43400C5F0248EFB740035F0FCBD
:20160C0074022BFBE43CFC9000BFE030E10679007A00800479017A008B828C83E9F09000D0
:20162C00C8C007C005121A0ED005D0077534048F82C007C005120A54AC82D005D007EC6084
:20164C00038C8222900001C007C005121A0ED005D0078F82C007C005120A06AC82D005D0B6
:20166C0007EC60038C82229000BEE0FC20E4D5900064C007C005121A0ED005D007753514B1
:20168C008F82C007C005120A8BD005D0077535108F82C007C005120A8BAC82D005D007EC8A
:2016AC0060038C82228F82C007C005120A06AC82D005D007EC60038C82229000BEE020E045
:2016CC00281DC2D575F00CED30E704B2D5F404A430D50AF42401C5F0F43400C5F0248EF525
:2016EC0082740035F0F583E4F08F82C007121175AD82D007ED60038D8222758201C00712AF
:20170C0002FED0070217A2EE30E1457535118F82C007120A8BD0077534048F82C007120A35
:20172C0054AE82D007EE60038E8222900001C007121A0ED0078F82C007120A06AE82D00755
:20174C00EE60038E82229000BEE0FE20E4DD80469000BEE0FE20E03E8F061EC2D575F00C02
:20176C00EE30E704B2D5F404A430D50AF42401C5F0F43400C5F0248EF582740035F0F5833D
:20178C00E4F09000C0E0FE30E00C7535108F82C007120A8BD0070F021550758200229000F0
:2017AC0081E0FFBF03004017900084E0FFBF090F7582001203A612154E7582011202FE7534
:2017CC00820022AF82900084E0FEBE09028003021868900081E0FDBD030050030218687D68
:2017EC00017C0190008DE0FBC39C40708C03EB14FAC2D575F00CEA30E704B2D5F404A43070
:20180C00D50AF42401C5F0F43400C5F0248EF9740035F0FA89828A83A3A3A3E0FAB5073627
:20182C001BC2D575F00CEB30E704B2D5F404A430D50AF42401C5F0F43400C5F0248EF5826D
:20184C00740035F0F583E0FBBB030040098D027B008A828B83220C8C050217EFEEB5070EE6
:20186C00900081E0FFBF030040049000002290FFFF2285824385834485F04575462175471C
:20188C0009754800754902754A00754B00754C01754D0074022543FAE43544FBAC458A8286
:2018AC008B838CF0121A84FAE4BA530104FA8543828544838545F0121A84FC74012543FB24
:2018CC00E43544FEAF458B828E838FF0121A84FB420474032543FDE43544FEAF458D828E57
:2018EC00838FF0121A84420474042543FDE43544FEAF458D828E838FF0121A8442047405AA
:20190C002543FDE43544FEAF458D828E838FF0121A84420474062543FDE43544FEAF458DB7
:20192C00828E838FF0121A84420474072543FDE43544FEAF458D828E838FF0121A84FDB464
:20194C000100E433FF4204EC5A605230011D9000407421F07F01EF2440F582E43400F583A9
:20196C00EF2446F9E7FEF00FBF09EB2001177F00EF2440F582E43400F583EF2446F9E7FE2A
:20198C00F00FBF08EB75254E7526007527409000BE120587E582FFFE60038E82227582004F
:2019AC0022C2EA75E28053D17F75E30075EB4875E40075E50075E64075E70075D40075D695
:1819CC000075E28875D8FF7F00C0071202ACD0070FBF02F575E10322BB
:2019E40075A15575A1AA74F855B9FF4307058FB975A10022AE82AF83EE4F600D05A105A118
:201A040005A11EBEFF011F80EF22AE82AF83EE4F60159003E8C007C0061219F8D006D007A4
:201A24001EBEFF011F80E722AE82AF8310990280FB8E998E828F832210980280FBAE997F40
:061A4400008E828F832258
:06004000E478FFF6D8FD94
:1F1A4A00AC82AD83AE1EAF1FBE0004EF600C1F0FE51D121A69A3DEFADFF88C828D832211
:20001E007900E94400601B7A00901B6E783675A001E493F2A308B8000205A0D9F4DAF275C9
:02003E00A0FF21
:1B1A690020F71130F6138883A88220F509F6A8837583002280FEF280F5F0227C
:200046007800E84400600A798075A000E4F309D8FC78B6E84400600C7901900080E4F0A303
:04006600D8FCD9FAEF
:0D00110075814E121AA0E582600302000EF8
:1C1A840020F71430F6148883A88220F507E6A88375830022E280F7E49322E02271
:041AA0007582002229
:00000001FF
